:020000040000FA
:020000004F2887
:08000800F000030EF1000408F2
:10001000F2000A08F3008A01831203138B1A0B1DE6
:100020001428F4200B1137288B190B1C1A283121A6
:100030000B1037280B1A8B1C20281A218B103728FD
:10004000831603138C1C2B28831203138C1C2B2860
:1000500001218C103728831203130C1C3228F9203D
:100060000C1037280C1D3728FB200C11372873087B
:100070008A0072088400710E8300F00E700E090071
:1000800000308A004730320703188A0A820006349B
:10009000243421340934183412340034003400007C
:1000A00083138312031398138312031307309F00E3
:1000B00049218316031300308500E930860083123E
:1000C0000313831603134530810083120313783022
:1000D0008B00831203132130900083120313063028
:1000E0009200831603131030920083160313073017
:1000F0008C00831203130A30970083120313C83055
:1001000024228B131430B80083120313B201B00100
:10011000C83081008E018F018030910064309601DB
:10012000013095004011C0134114C0104013C83075
:1001300024228B17C020B120031C9B289F28B120AC
:10014000031CA3289F286329C920B120031CA928C8
:10015000AC280000AE28812840149F280000A42865
:10016000812834085B3C031CC1100318C11408002B
:100170003630F4211430A7000030A6001022080009
:1001800040148B114921080086194017861D401321
:1001900008003408B5005F30B502031CB5010F300C
:1001A000B507401FD7280430B500C013DF285A30E8
:1001B00035020318C01755303502031CC013363002
:1001C000F421EC30A507031CA4033508B1212C0849
:1001D000B9002B08BA002A08BB005F30C7213908D4
:1001E00095003A0896000800B00BF7284014C42088
:1001F000080040150800C01B0029411C00294921A6
:100200000800C01D1929401E06291029401638086B
:10021000FF3C83160313920083120313492119290B
:1002200040123808831603139200831203134E21E1
:1002300019290800C01E25298101B0018316031366
:10024000011383120313C01208000108B400000058
:1002500083160313011783120313C0168101B00123
:1002600008000F08B607B60C0E08B707B70C8F01C9
:100270008E013C214E21080000308A0032084020C7
:10028000B3004018B301B20A063032020318B201BB
:100290000800C11808000A30850008000000C118D5
:1002A0005E290F3033050A3A8500331E8610331A53
:1002B0008614B31E0615B31A061108000615861417
:1002C0000F308500080040104011C0108B11C01580
:1002D000831203138C14831203138B171430A000A2
:1002E0000430A100B120031C802940144921C01111
:1002F000831203138C108312031341148B15AC2843
:100300003C214E21023020072422A10B8029A00B82
:10031000702941148B154921C011831203138C10CD
:100320008312031380309500783096000A3024221F
:1003300040104011A4283C30A2212108A507031831
:10034000A40A0800A401A5000830B1002508A501F1
:100350000310A00C0318A407A40CA50CB10BA92929
:100360000800AA01AB01AC001030B1002C08AC01B0
:100370000310A40CA50C0318AA07AA0CAB0CAC0C18
:10038000B10BB82908000310A40CA50C0800BC0090
:100390001830BF00BD01B90DBA0DBB0DBD0DBE0DAE
:1003A0003C083D023E1803140318BD00B90DBA0DF8
:1003B000BB0DBF0BCE2908002708A5070318A60A06
:1003C0002608A40708002508A7070318A40A24087C
:1003D000A607080084008009840A8009800A031D9A
:1003E00008008403800A080084000008A400840A2E
:1003F0000008A5000800840024088000840A25085D
:100400008000080084000008A600840A0008A700F5
:100410000800840026088000840A2708800008005D
:1004200024082602031D08002508270208002A08C0
:100430002D02031D08002B082E02031D08002C08A6
:040440002F0208007F
:04044400003400344C
:08044800F500F9306400282AD8
:10045000292A2A2A2B2A2C2A2D2A2E2A0000FF3E5E
:10046000031D262A332A342A352A362A372A382ADF
:0C047000392A3A2A0000F50B252A080062
:02400E00623F0F
:00000001FF
